:10000000FDC000001BC1000019C1000017C10000A5
:1000100015C1000013C1000011C100000FC1000094
:100020000DC100000BC1000009C1000007C10000A4
:1000300005C1000003C100000C9431090C945E0955
:100040000C948B090C94B8090C94E5090C94120AD1
:100050000C943F0A0C946C0A0C94990A0C94C60AEE
:10006000EDC00000EBC00000E9C00000E7C00000E8
:10007000E5C00000E3C00000E1C00000DFC00000F8
:10008000DDC00000DBC00000D9C00000D7C0000008
:10009000D5C00000D3C00000D1C00000BEC6000023
:1000A000EEC600001EC700004EC70000C7C000001B
:1000B000C5C00000C3C00000C1C000000C94B50C56
:1000C0000C94E20C0C940F0D0C943C0D0C94690DE7
:1000D0000C94960D0C94C30D0C94F00D0C941D0E05
:1000E0000C944A0EABC00000A9C00000A7C00000DD
:1000F000A5C00000A3C00000A1C000009FC0000078
:100100009DC000009BC0000099C0000097C0000087
:1001100095C0000093C0000091C00000B6C500006B
:10012000E6C5000016C6000046C6000087C00000F5
:1001300085C000000C94F30A0C94200B0C944D0B1A
:100140000C947A0B0C94A70B0C94D40B0C94010C0C
:100150000C942E0C0C945B0C0C94880C6FC000005B
:100160006DC000006BC0000069C0000067C00000E7
:1001700065C0000063C0000061C000005FC00000F7
:100180005DC000005BC0000059C0000057C0000007
:1001900055C0000053C0000051C000004FC0000017
:1001A0004DC000004BC0000049C0000047C0000027
:1001B0000C94770E0C94A40E0C94D10E0C94FE0E9D
:1001C0000C942B0F0C94580F39C0000037C000005E
:1001D00035C0000033C0000031C000002FC0000057
:1001E0002DC000002BC0000029C0000027C0000067
:1001F00025C0000023C0000021C0000011241FBE44
:10020000CFEFDFE5DEBFCDBF00E00CBF10E2A0E026
:10021000B0E2E6EDF5E200E00BBF02C007900D9200
:10022000A030B107D9F712E2A0E0B0E201C01D9200
:10023000A33DB107E1F7C2D10C94E912E1CEBA01B6
:10024000729562956F7067277F706727777082E07D
:100250006A3B7807B8F080E090E00E9494112CEFA0
:1002600039EA41EF5CEB0E94221228E532E042E2DB
:1002700052E40E94FF100E94631160937A227093EF
:100280007B2231C081E0653A7807B8F080E090E0E9
:100290000E94941123E63AE742E45DEB0E942212A9
:1002A00024E737E045E552E40E94FF100E94631105
:1002B00060937A2270937B2216C080E090E00E94C7
:1002C000941123EA30E44FE95DEB0E94221228EA00
:1002D00036E043E852E40E94FF100E9463116093ED
:1002E0007A2270937B2220910020E22FFF27E7FDE6
:1002F000F095EE0FFF1FEE59FD4D80917A229091FF
:100300007B22808391838AE0809384062F5F2093F1
:1003100000200895529542954F7045275F704527FC
:100320006FEF7FE0CB01841B950B0E94851224E6C2
:1003300030E0629FC001639F900D729F900D112469
:10034000809380229093812220910520E22FFF2725
:10035000E7FDF095EE0FFF1FE259FD4D808391837D
:100360002F5F209305200895CF92DF92EF92FF92A6
:100370001F9380910A208F5F80930A208FB7F89493
:10038000E0E0F2E09081946090838FBF8FB7F894A3
:10039000E0E4F2E09081986090838FBF80910A2022
:1003A000873008F467C010920A2010920020E4E61B
:1003B000F2E2609164227091652292918291680FBD
:1003C000791F84819581680F791F86819781680FD5
:1003D000791F80859185680F791F82859385680FC5
:1003E000791F882777FD8095982F0F2EF6E0CF2E66
:1003F000F0E0DF2EF0E0EF2EF0E0FF2EF02DA70171
:1004000096010E94BA12122F2093012030930220ED
:10041000409303205093042010920520E0E7F2E27D
:10042000609170227091712292918291680F791F70
:1004300084819581680F791F86819781680F791F64
:1004400080859185680F791F82859385680F791F54
:10045000882777FD8095982FA70196010E94981212
:1004600020930620309307204093082050930920C2
:10047000109384061F91FF90EF90DF90CF90089526
:100480000F931F93CF93DF93CBE5D2E280E092E00E
:10049000BE01F8D50CE712E280E092E061E0A8012D
:1004A00054D690915C22917E80915D228F7824E0D9
:1004B00020935F22906190935C2210925E22816172
:1004C00080935D2280E092E0BE0186D580E092E0DC
:1004D0006FE171E07BD681E080937C2288E080939D
:1004E0007D2280917E22807F816080937E2280E0C9
:1004F00092E061E0A801E9D580E092E056D5DF9175
:10050000CF911F910F9108950F931F93CF93DF9376
:10051000C2EAD2E280E492E0BE01B4D509EC12E274
:1005200080E492E062E0A80110D69091A322917E2F
:100530008091A4228F7824E02093A622906190934A
:10054000A3221092A52281618093A42280E492E0EC
:10055000BE0142D580E492E06AE871E037D681E0DE
:100560008093C9221092CA228091CB22807F816021
:100570008093CB2280E492E062E0A801A6D580E4DB
:1005800092E013D5DF91CF911F910F910895FFD283
:10059000A8D187E0E0EAF0E0828368D278941092F4
:1005A000CD221092CE221092CF221092D022109201
:1005B000D12281E08093D22263DFA6CFE8DF8FEFE4
:1005C0008093810680E098E00E94850F80E098E0AB
:1005D00064EB71E00E94F00FE0E0F8E08181887F39
:1005E000818381E090E086A397A386818C7F8683B8
:1005F0008681816086838081807F8760808381E0BF
:1006000080938406FFCFCF92DF92EF92FF920F93F9
:100610001F93DF93CF930F920F92CDB7DEB788E091
:100620008983E0E0F6E086838981982F9150998351
:100630008823D1F788E08983E0E0F6E0858389812B
:10064000982F915099838823D1F78BE28A8380EA8F
:1006500099E057D280EA99E0BE016E5F7F4F43E098
:1006600000E412E42FE030E0CC24DD24760174D2E3
:10067000E0E6F6E081E0868398E0A0EAB6E0169630
:100680009C9316978683E0EAF9E0818185FFFDCF90
:1006900080EA8093A009E0EAF9E0818186FFFDCF3E
:1006A000E0EAF9E080E481838081E0EAF6E088E036
:1006B0008583868381E0E0E6F6E08683E0EAF9E080
:1006C000818185FFFDCF86EA8093A009E0EAF9E009
:1006D000818186FFFDCFE0EAF9E080E481838081BB
:1006E000E0EAF6E088E08583868381E0E0E6F6E0F4
:1006F0008683E0EAF9E0818185FFFDCF88EC809375
:10070000A009E0EAF9E0818186FFFDCFE0EAF9E0A7
:1007100080E481838081E0EAF6E088E08583868357
:1007200081E0E0E6F6E08683E0EAF9E0818185FF9A
:10073000FDCF82EA8093A009E0EAF9E0818186FF9B
:10074000FDCFE0EAF9E080E481838081E0EAF6E031
:1007500088E08583868381E0E0E6F6E08683E0EA50
:10076000F9E0818185FFFDCF8FE28093A009E0EA67
:10077000F9E0818186FFFDCFE0EAF9E080E4818342
:100780008081E0EAF6E088E08583868381E0E0E628
:10079000F6E08683E0EAF9E0818185FFFDCF88EF0E
:1007A0008093A009E0EAF9E0818186FFFDCFE0EACD
:1007B000F9E080E481838081E0EAF6E088E08583E7
:1007C000868381E0E0E6F6E08683E0EAF9E0818175
:1007D00085FFFDCF1092A009E0EAF9E0818186FF54
:1007E000FDCFE0EAF9E080E481838081E0EAF6E091
:1007F00088E08583868381E0E0E6F6E08683E0EAB0
:10080000F9E0818185FFFDCF81E28093A009E0EAD4
:10081000F9E0818186FFFDCFE0EAF9E080E48183A1
:100820008081E0EAF6E088E08583868381E0E0E687
:10083000F6E08683E0EAF9E0818185FFFDCF81E87B
:100840008093A009E0EAF9E0818186FFFDCFE0EA2C
:10085000F9E080E481838081E0EAF6E088E0858346
:10086000868381E0E0E6F6E08683E0EAF9E08181D4
:1008700085FFFDCF89E38093A009E0EAF9E081815B
:1008800086FFFDCFE0EAF9E080E481838081E0EA41
:10089000F6E088E08583868381E0E0E6F6E0868303
:1008A000E0EAF9E0818185FFFDCF8FEA8093A0091E
:1008B000E0EAF9E0818186FFFDCFE0EAF9E080E43B
:1008C0008183808188E0E0EAF6E085830F900F90D5
:1008D000CF91DF911F910F91FF90EF90DF90CF901C
:1008E00008958FEF80937000809371008093720061
:1008F00080937300809374008093750080937600DA
:1009000081E490E06CE077D48FB7F894E0E5F0E014
:100910009081926090838FBF818181FFFDCF80E4C1
:1009200090E061E068D48FB7F894E0E5F0E0908162
:100930009E7F90838FBF08959FB7F894E82FF0E0D3
:10094000E059FF4F60958081682360839FBF0895C1
:100950009FB7F894E82FF0E0E059FF4F8081682BB3
:1009600060839FBF0895FF920F931F93F82E062F69
:10097000142FB6D09F2D9F70906B88E0E0EAF6E0D0
:10098000868381E0E0E6F6E08683E0EAF9E08181B3
:1009900085FFFDCF9093A009E0EAF9E0818186FF11
:1009A000FDCFE0EAF9E080E481838081E0EAF6E0CF
:1009B00088E085830F77902F92959F709061868352
:1009C00081E0E0E6F6E08683E0EAF9E0818185FFF8
:1009D000FDCF9093A009E0EAF9E0818186FFFDCF89
:1009E000E0EAF9E080E481838081E0EAF6E088E0F3
:1009F00085830F70868381E0E0E6F6E08683E0EA97
:100A0000F9E0818185FFFDCF0093A009E0EAF9E0DC
:100A1000818186FFFDCFE0EAF9E080E48183808177
:100A2000E0EAF6E088E08583868381E0E0E6F6E0B0
:100A30008583E0EAF9E0818185FFFDCF1093A0096D
:100A4000E0EAF9E0818186FFFDCFE0EAF9E080E4A9
:100A50008183808181E0E0E6F6E0868388E0E0EA59
:100A6000F6E085831F910F91FF9008950F931F93D8
:100A70008BE090E230D0C7DD88E0E0EAF6E08683E4
:100A800081E0E0E6F6E08683E0EAF9E0818185FF37
:100A9000FDCF80E48093A009E0EAF9E0818186FF40
:100AA000FDCFE0EAF9E080E48183808188E0E0EA3C
:100AB000F6E0858300E00AC0802F612F40E053DF1D
:100AC0001F5F1038C9F70F5F043011F010E0F4CF4A
:100AD0001F910F91089580930B2290930C220895FB
:100AE000E82FF0E0F695FE2FEE27F795E795E60F55
:100AF000F11D80910B2290910C22E80FF91F408389
:100B0000089528E0803A920719F483E060E114CF59
:100B100028E0803B920719F483E060E20DCF29E0E2
:100B2000803A920719F484E060E106CF29E0803B27
:100B3000920719F484E060E2FFCE2AE0803A92073F
:100B400019F485E060E1F8CE2BE0803A920719F4C1
:100B500086E060E1F1CE08950F931F93DF93CF936A
:100B600000D000D0CDB7DEB709831A832B833C8336
:100B70004D831E82BE016F5F7F4F0E9456102696E6
:100B8000CDBFDEBFCF91DF911F910F91089580EE11
:100B900097E061E040E053E034D380EE97E062E01C
:100BA00040E053E02ED380E696E060E140E053E081
:100BB00028D380E696E060E240E451E022D380E86A
:100BC00096E060E24BE150E01CD380E696E062E004
:100BD00040E053E016D380E696E068E040E053E062
:100BE00010D380EA96E068E040E053E00AD380E664
:100BF00096E061E040E053E004D380E096E068E0F6
:100C000040E053E0FED280E896E060E140E051E051
:100C1000F8C222E08030920759F480911122982F77
:100C20009F5F90931122882391F481E062E084CE4B
:100C300022E08034920759F480911222982F9F5F0E
:100C400090931222882319F482E062E075CE089511
:100C500022E08030920751F48091112281508093DC
:100C60001122882389F481E062E072CE22E0803490
:100C7000920751F48091122281508093122288238E
:100C800019F482E062E064CE08951F920F920FB6CD
:100C90000F920BB60F9211242F933F934F935F93B4
:100CA0006F937F938F939F93AF93BF93EF93FF9334
:100CB000E0E0F2E044A155A1E0910D22F0910E2276
:100CC00080E092E061E01995FF91EF91BF91AF91C3
:100CD0009F918F917F916F915F914F913F912F9154
:100CE0000F900BBE0F900FBE0F901F9018951F9284
:100CF0000F920FB60F920BB60F9211242F933F93C2
:100D00004F935F936F937F938F939F93AF93BF9313
:100D1000EF93FF93E8E2F2E044815581E0910D22E8
:100D2000F0910E2280E092E062E01995FF91EF9140
:100D3000BF91AF919F918F917F916F915F914F91F3
:100D40003F912F910F900BBE0F900FBE0F901F90F1
:100D500018951F920F920FB60F920BB60F92112497
:100D60002F933F934F935F936F937F938F939F93B3
:100D7000AF93BF93EF93FF93E0E3F2E0448155819B
:100D8000E0910D22F0910E2280E092E064E019954E
:100D9000FF91EF91BF91AF919F918F917F916F9153
:100DA0005F914F913F912F910F900BBE0F900FBE0F
:100DB0000F901F9018951F920F920FB60F920BB6BF
:100DC0000F9211242F933F934F935F936F937F93D1
:100DD0008F939F93AF93BF93EF93FF93E8E3F2E07A
:100DE00044815581E0910D22F0910E2280E092E045
:100DF00068E01995FF91EF91BF91AF919F918F910D
:100E00007F916F915F914F913F912F910F900BBE0A
:100E10000F900FBE0F901F9018951F920F920FB654
:100E20000F920BB60F9211242F933F934F935F9322
:100E30006F937F938F939F93AF93BF93EF93FF93A2
:100E4000E0E4F2E044A155A1E0910F22F0911022DC
:100E500080E492E061E01995FF91EF91BF91AF912D
:100E60009F918F917F916F915F914F913F912F91C2
:100E70000F900BBE0F900FBE0F901F9018951F92F2
:100E80000F920FB60F920BB60F9211242F933F9330
:100E90004F935F936F937F938F939F93AF93BF9382
:100EA000EF93FF93E8E6F2E044815581E0910F2251
:100EB000F091102280E492E062E01995FF91EF91A9
:100EC000BF91AF919F918F917F916F915F914F9162
:100ED0003F912F910F900BBE0F900FBE0F901F9060
:100EE00018951F920F920FB60F920BB60F92112406
:100EF0002F933F934F935F936F937F938F939F9322
:100F0000AF93BF93EF93FF93E0E7F2E04481558105
:100F1000E0910F22F091102280E492E064E01995B4
:100F2000FF91EF91BF91AF919F918F917F916F91C1
:100F30005F914F913F912F910F900BBE0F900FBE7D
:100F40000F901F9018951F920F920FB60F920BB62D
:100F50000F9211242F933F934F935F936F937F933F
:100F60008F939F93AF93BF93EF93FF93E8E7F2E0E4
:100F700044815581E0910F22F091102280E492E0AB
:100F800068E01995FF91EF91BF91AF919F918F917B
:100F90007F916F915F914F913F912F910F900BBE79
:100FA0000F900FBE0F901F9018951F93CF93DF9354
:100FB000EC011FB7F8942DDE8881816088831FBF04
:100FC0008FB7F8949091CE229F5F9093CE228FBFDF
:100FD000DF91CF911F910895DF92EF92FF920F93CF
:100FE0001F93CF93DF93EC018B0182E0C030D807D1
:100FF00081F482E061E270E02AD1D82E82E060E2E2
:1010000070E025D13D2D20E0E82EFF24E22AF32ACE
:1010100013C0E2E0C034DE0769F582E065E270E00B
:1010200016D1D82E82E064E270E011D13D2D20E08F
:10103000E82EFF24E22AF32ADFB6F894CE01E9DD98
:10104000288182E08883EC86FD86F801858196817F
:10105000888F998F82818A8384818C8383818B831B
:1010600081818983822F81709081892B8883CE0131
:10107000EFDDDFBEDF91CF911F910F91FF90EF90D9
:10108000DF900895FF920F931F93CF93DF93EC01AE
:101090008B01FFB6F894BDDD8881807CF8018083E8
:1010A000888D998D858396838A8182838C818483C0
:1010B0008B81838389818183CE01CADDFFBEDF916D
:1010C000CF911F910F91FF900895BF92CF92DF9221
:1010D000EF92FF920F931F93CF93DF937C01EA016E
:1010E000C62EDD24C60183709070009721F46695AA
:1010F000669502E001C000E060FF0F5FC7018096C7
:1011000010E0000F111F000F111F000F111F080F1B
:10111000191FBFB6F894C7017CDD8881F801808370
:101120008A81828389818183C0FE02C08B8186830C
:10113000C7018EDDBFBEDF91CF911F910F91FF9050
:10114000EF90DF90CF90BF900895BF92CF92DF9243
:10115000EF92FF920F931F93CF93DF937C018A014D
:10116000C62EDD24C60183709070009721F4669529
:10117000669522E001C020E060FF2F5FC7018096E6
:10118000C22FD0E0CC0FDD1FCC0FDD1FCC0FDD1F39
:10119000C80FD91FBFB6F894C7013BDD8881F8019D
:1011A00080838A81828389818183C0FE02C08E818F
:1011B0008383C7014DDDBFBEDF91CF911F910F919A
:1011C000FF90EF90DF90CF90BF9008952FB7F894E5
:1011D00032E08030930729F460930D2270930E2241
:1011E00008C032E08034930721F460930F2270939B
:1011F00010222FBF08951BBEFC0128ED24BF608381
:101200000895CF93DF93FC01DC0180E090E0C62FCE
:10121000D0E09E01082E02C0359527950A94E2F78A
:1012200020FF03C050964C9350970196119688303A
:10123000910579F750FF07C051FF02C0658301C0D7
:101240006683618301C06283DF91CF9108954091ED
:10125000CA01E62FF72F8093CA0184914093CA01F7
:1012600008951F920F920FB60F920BB60F92112492
:101270002F933F934F935F936F937F938F939F939E
:10128000AF93BF93EF93FF93E0914D22F0914E22E5
:10129000309709F01995FF91EF91BF91AF919F9110
:1012A0008F917F916F915F914F913F912F910F900F
:1012B0000BBE0F900FBE0F901F9018951F920F92AC
:1012C0000FB60F920BB60F9211242F933F934F93AB
:1012D0005F936F937F938F939F93AF93BF93EF939E
:1012E000FF93E0913F22F0914022309709F0199549
:1012F000FF91EF91BF91AF919F918F917F916F91EE
:101300005F914F913F912F910F900BBE0F900FBEA9
:101310000F901F9018951F920F920FB60F920BB659
:101320000F9211242F933F934F935F936F937F936B
:101330008F939F93AF93BF93EF93FF93E0913122ED
:10134000F0913222309709F01995FF91EF91BF91FA
:10135000AF919F918F917F916F915F914F913F914D
:101360002F910F900BBE0F900FBE0F901F901895EE
:101370001F920F920FB60F920BB60F9211242F935C
:101380003F934F935F936F937F938F939F93AF930D
:10139000BF93EF93FF93E0912322F09124223097A3
:1013A00009F01995FF91EF91BF91AF919F918F91A6
:1013B0007F916F915F914F913F912F910F900BBE55
:1013C0000F900FBE0F901F9018951F920F920FB69F
:1013D0000F920BB60F9211242F933F934F935F936D
:1013E0006F937F938F939F93AF93BF93EF93FF93ED
:1013F000E0911B22F0911C22309709F01995FF9182
:10140000EF91BF91AF919F918F917F916F915F917C
:101410004F913F912F910F900BBE0F900FBE0F90E9
:101420001F9018951F920F920FB60F920BB60F9246
:1014300011242F933F934F935F936F937F938F93D9
:101440009F93AF93BF93EF93FF93E0911322F0919B
:101450001422309709F01995FF91EF91BF91AF9148
:101460009F918F917F916F915F914F913F912F91BC
:101470000F900BBE0F900FBE0F901F9018951F92EC
:101480000F920FB60F920BB60F9211242F933F932A
:101490004F935F936F937F938F939F93AF93BF937C
:1014A000EF93FF93E0914F22F0915022309709F093
:1014B0001995FF91EF91BF91AF919F918F917F917E
:1014C0006F915F914F913F912F910F900BBE0F90B5
:1014D0000FBE0F901F9018951F920F920FB60F928C
:1014E0000BB60F9211242F933F934F935F936F93FB
:1014F0007F938F939F93AF93BF93EF93FF93E0916D
:101500004122F0914222309709F01995FF91EF9115
:10151000BF91AF919F918F917F916F915F914F910B
:101520003F912F910F900BBE0F900FBE0F901F9009
:1015300018951F920F920FB60F920BB60F921124AF
:101540002F933F934F935F936F937F938F939F93CB
:10155000AF93BF93EF93FF93E0913322F091342246
:10156000309709F01995FF91EF91BF91AF919F913D
:101570008F917F916F915F914F913F912F910F903C
:101580000BBE0F900FBE0F901F9018951F920F92D9
:101590000FB60F920BB60F9211242F933F934F93D8
:1015A0005F936F937F938F939F93AF93BF93EF93CB
:1015B000FF93E0912522F0912622309709F01995AA
:1015C000FF91EF91BF91AF919F918F917F916F911B
:1015D0005F914F913F912F910F900BBE0F900FBED7
:1015E0000F901F9018951F920F920FB60F920BB687
:1015F0000F9211242F933F934F935F936F937F9399
:101600008F939F93AF93BF93EF93FF93E0915122FA
:10161000F0915222309709F01995FF91EF91BF9107
:10162000AF919F918F917F916F915F914F913F917A
:101630002F910F900BBE0F900FBE0F901F9018951B
:101640001F920F920FB60F920BB60F9211242F9389
:101650003F934F935F936F937F938F939F93AF933A
:10166000BF93EF93FF93E0914322F0914422309790
:1016700009F01995FF91EF91BF91AF919F918F91D3
:101680007F916F915F914F913F912F910F900BBE82
:101690000F900FBE0F901F9018951F920F920FB6CC
:1016A0000F920BB60F9211242F933F934F935F939A
:1016B0006F937F938F939F93AF93BF93EF93FF931A
:1016C000E0913522F0913622309709F01995FF917B
:1016D000EF91BF91AF919F918F917F916F915F91AA
:1016E0004F913F912F910F900BBE0F900FBE0F9017
:1016F0001F9018951F920F920FB60F920BB60F9274
:1017000011242F933F934F935F936F937F938F9306
:101710009F93AF93BF93EF93FF93E0912722F091B4
:101720002822309709F01995FF91EF91BF91AF9161
:101730009F918F917F916F915F914F913F912F91E9
:101740000F900BBE0F900FBE0F901F9018951F9219
:101750000F920FB60F920BB60F9211242F933F9357
:101760004F935F936F937F938F939F93AF93BF93A9
:10177000EF93FF93E0911D22F0911E22309709F024
:101780001995FF91EF91BF91AF919F918F917F91AB
:101790006F915F914F913F912F910F900BBE0F90E2
:1017A0000FBE0F901F9018951F920F920FB60F92B9
:1017B0000BB60F9211242F933F934F935F936F9328
:1017C0007F938F939F93AF93BF93EF93FF93E0919A
:1017D0001522F0911622309709F01995FF91EF919B
:1017E000BF91AF919F918F917F916F915F914F9139
:1017F0003F912F910F900BBE0F900FBE0F901F9037
:1018000018951F920F920FB60F920BB60F921124DC
:101810002F933F934F935F936F937F938F939F93F8
:10182000AF93BF93EF93FF93E0915322F091542233
:10183000309709F01995FF91EF91BF91AF919F916A
:101840008F917F916F915F914F913F912F910F9069
:101850000BBE0F900FBE0F901F9018951F920F9206
:101860000FB60F920BB60F9211242F933F934F9305
:101870005F936F937F938F939F93AF93BF93EF93F8
:10188000FF93E0914522F0914622309709F0199597
:10189000FF91EF91BF91AF919F918F917F916F9148
:1018A0005F914F913F912F910F900BBE0F900FBE04
:1018B0000F901F9018951F920F920FB60F920BB6B4
:1018C0000F9211242F933F934F935F936F937F93C6
:1018D0008F939F93AF93BF93EF93FF93E091372242
:1018E000F0913822309709F01995FF91EF91BF914F
:1018F000AF919F918F917F916F915F914F913F91A8
:101900002F910F900BBE0F900FBE0F901F90189548
:101910001F920F920FB60F920BB60F9211242F93B6
:101920003F934F935F936F937F938F939F93AF9367
:10193000BF93EF93FF93E0912922F0912A223097F1
:1019400009F01995FF91EF91BF91AF919F918F9100
:101950007F916F915F914F913F912F910F900BBEAF
:101960000F900FBE0F901F9018951F920F920FB6F9
:101970000F920BB60F9211242F933F934F935F93C7
:101980006F937F938F939F93AF93BF93EF93FF9347
:10199000E0915522F0915622309709F01995FF9168
:1019A000EF91BF91AF919F918F917F916F915F91D7
:1019B0004F913F912F910F900BBE0F900FBE0F9044
:1019C0001F9018951F920F920FB60F920BB60F92A1
:1019D00011242F933F934F935F936F937F938F9334
:1019E0009F93AF93BF93EF93FF93E0914722F091C2
:1019F0004822309709F01995FF91EF91BF91AF916F
:101A00009F918F917F916F915F914F913F912F9116
:101A10000F900BBE0F900FBE0F901F9018951F9246
:101A20000F920FB60F920BB60F9211242F933F9384
:101A30004F935F936F937F938F939F93AF93BF93D6
:101A4000EF93FF93E0913922F0913A22309709F019
:101A50001995FF91EF91BF91AF919F918F917F91D8
:101A60006F915F914F913F912F910F900BBE0F900F
:101A70000FBE0F901F9018951F920F920FB60F92E6
:101A80000BB60F9211242F933F934F935F936F9355
:101A90007F938F939F93AF93BF93EF93FF93E091C7
:101AA0002B22F0912C22309709F01995FF91EF919C
:101AB000BF91AF919F918F917F916F915F914F9166
:101AC0003F912F910F900BBE0F900FBE0F901F9064
:101AD00018951F920F920FB60F920BB60F9211240A
:101AE0002F933F934F935F936F937F938F939F9326
:101AF000AF93BF93EF93FF93E0911F22F0912022C9
:101B0000309709F01995FF91EF91BF91AF919F9197
:101B10008F917F916F915F914F913F912F910F9096
:101B20000BBE0F900FBE0F901F9018951F920F9233
:101B30000FB60F920BB60F9211242F933F934F9332
:101B40005F936F937F938F939F93AF93BF93EF9325
:101B5000FF93E0911722F0911822309709F0199520
:101B6000FF91EF91BF91AF919F918F917F916F9175
:101B70005F914F913F912F910F900BBE0F900FBE31
:101B80000F901F9018951F920F920FB60F920BB6E1
:101B90000F9211242F933F934F935F936F937F93F3
:101BA0008F939F93AF93BF93EF93FF93E09157224F
:101BB000F0915822309709F01995FF91EF91BF915C
:101BC000AF919F918F917F916F915F914F913F91D5
:101BD0002F910F900BBE0F900FBE0F901F90189576
:101BE0001F920F920FB60F920BB60F9211242F93E4
:101BF0003F934F935F936F937F938F939F93AF9395
:101C0000BF93EF93FF93E0914922F0914A223097DE
:101C100009F01995FF91EF91BF91AF919F918F912D
:101C20007F916F915F914F913F912F910F900BBEDC
:101C30000F900FBE0F901F9018951F920F920FB626
:101C40000F920BB60F9211242F933F934F935F93F4
:101C50006F937F938F939F93AF93BF93EF93FF9374
:101C6000E0913B22F0913C22309709F01995FF91C9
:101C7000EF91BF91AF919F918F917F916F915F9104
:101C80004F913F912F910F900BBE0F900FBE0F9071
:101C90001F9018951F920F920FB60F920BB60F92CE
:101CA00011242F933F934F935F936F937F938F9361
:101CB0009F93AF93BF93EF93FF93E0912D22F09109
:101CC0002E22309709F01995FF91EF91BF91AF91B6
:101CD0009F918F917F916F915F914F913F912F9144
:101CE0000F900BBE0F900FBE0F901F9018951F9274
:101CF0000F920FB60F920BB60F9211242F933F93B2
:101D00004F935F936F937F938F939F93AF93BF9303
:101D1000EF93FF93E0915922F0915A22309709F006
:101D20001995FF91EF91BF91AF919F918F917F9105
:101D30006F915F914F913F912F910F900BBE0F903C
:101D40000FBE0F901F9018951F920F920FB60F9213
:101D50000BB60F9211242F933F934F935F936F9382
:101D60007F938F939F93AF93BF93EF93FF93E091F4
:101D70004B22F0914C22309709F01995FF91EF9189
:101D8000BF91AF919F918F917F916F915F914F9193
:101D90003F912F910F900BBE0F900FBE0F901F9091
:101DA00018951F920F920FB60F920BB60F92112437
:101DB0002F933F934F935F936F937F938F939F9353
:101DC000AF93BF93EF93FF93E0913D22F0913E22BA
:101DD000309709F01995FF91EF91BF91AF919F91C5
:101DE0008F917F916F915F914F913F912F910F90C4
:101DF0000BBE0F900FBE0F901F9018951F920F9261
:101E00000FB60F920BB60F9211242F933F934F935F
:101E10005F936F937F938F939F93AF93BF93EF9352
:101E2000FF93E0912F22F0913022309709F019951D
:101E3000FF91EF91BF91AF919F918F917F916F91A2
:101E40005F914F913F912F910F900BBE0F900FBE5E
:101E50000F901F9018951F920F920FB60F920BB60E
:101E60000F9211242F933F934F935F936F937F9320
:101E70008F939F93AF93BF93EF93FF93E0912122B2
:101E8000F0912222309709F01995FF91EF91BF91BF
:101E9000AF919F918F917F916F915F914F913F9102
:101EA0002F910F900BBE0F900FBE0F901F901895A3
:101EB0001F920F920FB60F920BB60F9211242F9311
:101EC0003F934F935F936F937F938F939F93AF93C2
:101ED000BF93EF93FF93E0911922F0911A2230976C
:101EE00009F01995FF91EF91BF91AF919F918F915B
:101EF0007F916F915F914F913F912F910F900BBE0A
:101F00000F900FBE0F901F9018951F931FB7F89456
:101F100028E08030920749F483E061E00E949C044D
:101F200083E064E00E949C0450C028E08034920763
:101F300049F483E062E00E949C0483E064E00E9434
:101F40009C0443C029E08030920749F484E061E0BA
:101F50000E949C0484E064E00E949C0436C029E056
:101F60008034920749F484E062E00E949C0484E09B
:101F700064E00E949C0429C02AE08030920749F462
:101F800085E061E00E949C0485E064E00E949C047E
:101F90001CC02AE08034920749F485E062E00E9488
:101FA0009C0485E064E00E949C040FC02BE080301C
:101FB000920749F486E061E00E949C0486E064E0B8
:101FC0000E949C0402C01FBF09C08FB7F894909173
:101FD000CE229F5F9093CE228FBF1FBF1F91089587
:101FE00028E08030920729F460934D2270934E22AE
:101FF000089528E08034920729F460934F2270936B
:102000005022089529E08030920729F460935122EC
:1020100070935222089529E08034920729F4609346
:1020200053227093542208952AE08030920729F4B5
:10203000609355227093562208952AE080349207C7
:1020400029F4609357227093582208952BE0803032
:10205000920721F46093592270935A2208950F93A6
:102060001F93CF93DF93EC01D901C801880F991F0B
:10207000AA1FBB1F9A01AB01220F331F441F551F1C
:10208000BC01CD0155D22F5F3F4F4F4F5F4F56954B
:1020900047953795279521503040832F8F708F8338
:1020A0002E83DF91CF911F910F9108950F931F936E
:1020B000CF93DF93EC018B0188E0C03AD80729F475
:1020C00083E060E10E949C0412C0E8E0C03BDE07B0
:1020D00029F483E060E20E949C0412C0F9E0C03A57
:1020E000DF0729F484E060E10E949C0412C089E0CB
:1020F000C03BD80729F484E060E20E949C0411C030
:10210000EAE0C03ADE0729F485E060E10E949C0421
:1021100008C0FBE0C03ADF0721F486E060E10E94DE
:102120009C048D81806C8D83F8018481813011F055
:10213000833021F48D8182608D8303C08D818D7FFA
:102140008D83F80184818250823008F041C0F8E02C
:10215000C03ADF0739F480E496E062E040E453E0FF
:1021600050D816C088E0C03BD80739F480E496E028
:1021700060E240E453E045D816C0E9E0C03ADE072B
:1021800039F480E696E062E040E453E03AD816C0C5
:10219000F9E0C03BDF0739F480E696E060E240E416
:1021A00053E02FD815C08AE0C03AD80739F480E848
:1021B00096E062E040E453E024D80AC0EBE0C03A85
:1021C000DE0731F480EA96E062E040E453E019D89B
:1021D000F8014081518162817381CE0100E012E1FA
:1021E0002AE730E03CDF8C8188608C838C818061C1
:1021F0008C83DF91CF911F910F9108955058BB2789
:10220000AA270ED0E5C0D6D030F0DBD020F031F4D4
:102210009F3F11F41EF4CBC00EF4E095E7FBC1C064
:10222000E92FE7D080F3BA17620773078407950791
:1022300018F071F49EF5FFC00EF4E0950B2EBA2F46
:10224000A02D0B01B90190010C01CA01A0011124BC
:10225000FF27591B99F0593F50F4503E68F11A1668
:10226000F040A22F232F342F4427585FF3CF4695F9
:1022700037952795A795F0405395C9F77EF41F161B
:10228000BA0B620B730B840BBAF09150A1F0FF0FE5
:10229000BB1F661F771F881FC2F70EC0BA0F621FD1
:1022A000731F841F48F4879577956795B795F795C1
:1022B0009E3F08F0B3CF9395880F08F09927EE0F53
:1022C00097958795089504D06894B111B5C0089585
:1022D00098D088F09F5790F0B92F9927B751A0F068
:1022E000D1F0660F771F881F991F1AF0BA95C9F7AA
:1022F00012C0B13081F09FD0B1E008959CC0672F2B
:10230000782F8827B85F39F0B93FCCF38695779559
:102310006795B395D9F73EF4909580957095619542
:102320007F4F8F4F9F4F0895E89409C097FB3EF46D
:1023300090958095709561957F4F8F4F9F4F992312
:10234000A9F0F92F96E9BB279395F6958795779590
:102350006795B795F111F8CFFAF4BB0F11F460FF50
:102360001BC06F5F7F4F8F4F9F4F16C0882311F0A8
:1023700096E911C0772321F09EE8872F762F05C0BC
:10238000662371F096E8862F70E060E02AF09A9557
:10239000660F771F881FDAF7880F9695879597F94C
:1023A000089597F99F6780E870E060E008959FEFD7
:1023B00080EC089500240A941616170618060906DC
:1023C000089500240A9412161306140605060895AB
:1023D000092E0394000C11F4882352F0BB0F40F433
:1023E000BF2B11F460FF04C06F5F7F4F8F4F9F4F73
:1023F000089557FD9058440F551F59F05F3F71F0F5
:102400004795880F97FB991F61F09F3F79F087955B
:102410000895121613061406551FF2CF4695F1DFE4
:1024200008C0161617061806991FF1CF8695710574
:10243000610508940895E894BB2766277727CB01A8
:1024400097F908950BD0C4CFB5DF28F0BADF18F0A4
:10245000952309F0A6CFABCF1124EECFCADFA0F3AE
:10246000959FD1F3950F50E0551F629FF001729F29
:10247000BB27F00DB11D639FAA27F00DB11DAA1F48
:10248000649F6627B00DA11D661F829F2227B00D95
:10249000A11D621F739FB00DA11D621F839FA00D20
:1024A000611D221F749F3327A00D611D231F849F70
:1024B000600D211D822F762F6A2F11249F575040C7
:1024C0008AF0E1F088234AF0EE0FFF1FBB1F661F62
:1024D000771F881F91505040A9F79E3F510570F01B
:1024E00060CFAACF5F3FECF3983EDCF386957795FB
:1024F0006795B795F795E7959F5FC1F7FE2B880F16
:10250000911D9695879597F9089597FB092E0726B3
:102510000AD077FD04D049D006D000201AF4709577
:1025200061957F4F0895F6F7909581959F4F089597
:10253000A1E21A2EAA1BBB1BFD010DC0AA1FBB1FC7
:10254000EE1FFF1FA217B307E407F50720F0A21B39
:10255000B30BE40BF50B661F771F881F991F1A94A6
:1025600069F760957095809590959B01AC01BD01D0
:10257000CF01089597FB092E05260ED057FD04D0F4
:10258000D7DF0AD0001C38F450954095309521953E
:102590003F4F4F4F5F4F0895F6F790958095709598
:1025A00061957F4F8F4F9F4F0895AA1BBB1B51E131
:1025B00007C0AA1FBB1FA617B70710F0A61BB70BB3
:1025C000881F991F5A95A9F780959095BC01CD0158
:0625D0000895F894FFCF0E
:00000001FF
